{
  "_format": "hh-sol-artifact-1",
  "contractName": "Khaderi",
  "sourceName": "contracts/Khaderi.sol",
  "abi": [
    {
      "inputs": [],
      "stateMutability": "nonpayable",
      "type": "constructor"
    },
    {
      "anonymous": false,
      "inputs": [
        {
          "indexed": true,
          "internalType": "bytes32",
          "name": "id",
          "type": "bytes32"
        }
      ],
      "name": "ChainlinkCancelled",
      "type": "event"
    },
    {
      "anonymous": false,
      "inputs": [
        {
          "indexed": true,
          "internalType": "bytes32",
          "name": "id",
          "type": "bytes32"
        }
      ],
      "name": "ChainlinkFulfilled",
      "type": "event"
    },
    {
      "anonymous": false,
      "inputs": [
        {
          "indexed": true,
          "internalType": "bytes32",
          "name": "id",
          "type": "bytes32"
        }
      ],
      "name": "ChainlinkRequested",
      "type": "event"
    },
    {
      "inputs": [],
      "name": "claimInsurance",
      "outputs": [
        {
          "internalType": "bytes32",
          "name": "requestId",
          "type": "bytes32"
        }
      ],
      "stateMutability": "nonpayable",
      "type": "function"
    },
    {
      "inputs": [
        {
          "internalType": "address",
          "name": "",
          "type": "address"
        }
      ],
      "name": "claimedFarmers",
      "outputs": [
        {
          "internalType": "bool",
          "name": "",
          "type": "bool"
        }
      ],
      "stateMutability": "view",
      "type": "function"
    },
    {
      "inputs": [
        {
          "internalType": "bytes32",
          "name": "_requestId",
          "type": "bytes32"
        },
        {
          "internalType": "uint256",
          "name": "_volume",
          "type": "uint256"
        }
      ],
      "name": "fulfill",
      "outputs": [],
      "stateMutability": "nonpayable",
      "type": "function"
    },
    {
      "inputs": [],
      "name": "insuranceFee",
      "outputs": [
        {
          "internalType": "uint256",
          "name": "",
          "type": "uint256"
        }
      ],
      "stateMutability": "view",
      "type": "function"
    },
    {
      "inputs": [],
      "name": "owner",
      "outputs": [
        {
          "internalType": "address",
          "name": "",
          "type": "address"
        }
      ],
      "stateMutability": "view",
      "type": "function"
    },
    {
      "inputs": [],
      "name": "register",
      "outputs": [],
      "stateMutability": "payable",
      "type": "function"
    },
    {
      "inputs": [
        {
          "internalType": "address",
          "name": "",
          "type": "address"
        }
      ],
      "name": "registeredFarmers",
      "outputs": [
        {
          "internalType": "bool",
          "name": "",
          "type": "bool"
        }
      ],
      "stateMutability": "view",
      "type": "function"
    },
    {
      "inputs": [
        {
          "internalType": "bytes32",
          "name": "",
          "type": "bytes32"
        }
      ],
      "name": "requestRecords",
      "outputs": [
        {
          "internalType": "address",
          "name": "",
          "type": "address"
        }
      ],
      "stateMutability": "view",
      "type": "function"
    },
    {
      "inputs": [],
      "name": "volume",
      "outputs": [
        {
          "internalType": "uint256",
          "name": "",
          "type": "uint256"
        }
      ],
      "stateMutability": "view",
      "type": "function"
    },
    {
      "inputs": [
        {
          "internalType": "address",
          "name": "",
          "type": "address"
        }
      ],
      "name": "whileListedFarmers",
      "outputs": [
        {
          "internalType": "bool",
          "name": "",
          "type": "bool"
        }
      ],
      "stateMutability": "view",
      "type": "function"
    },
    {
      "inputs": [
        {
          "internalType": "address",
          "name": "_address",
          "type": "address"
        }
      ],
      "name": "whiteListAddress",
      "outputs": [],
      "stateMutability": "nonpayable",
      "type": "function"
    },
    {
      "stateMutability": "payable",
      "type": "receive"
    }
  ],
  "bytecode": "0x6080604052600160045566038d7ea4c68000600a553480156200002157600080fd5b50620000326200010460201b60201c565b73c57b33452b4f7bb189bb5afae9cc4aba1f7a4fd8600760006101000a81548173ffffffffffffffffffffffffffffffffffffffff021916908373ffffffffffffffffffffffffffffffffffffffff1602179055507f643532373064316333313139343164306230386265616432316665613737343760088190555067016345785d8a000060098190555033600b60006101000a81548173ffffffffffffffffffffffffffffffffffffffff021916908373ffffffffffffffffffffffffffffffffffffffff1602179055506200028c565b620001aa73c89bd4e1632d3a43cb03aaad5262cbe4038bc57173ffffffffffffffffffffffffffffffffffffffff166338cc48316040518163ffffffff1660e01b815260040160206040518083038186803b1580156200016357600080fd5b505afa15801562000178573d6000803e3d6000fd5b505050506040513d601f19601f820116820180604052508101906200019e919062000207565b620001ac60201b60201c565b565b80600260006101000a81548173ffffffffffffffffffffffffffffffffffffffff021916908373ffffffffffffffffffffffffffffffffffffffff16021790555050565b600081519050620002018162000272565b92915050565b60006020828403121562000220576200021f6200026d565b5b60006200023084828501620001f0565b91505092915050565b600062000246826200024d565b9050919050565b600073ffffffffffffffffffffffffffffffffffffffff82169050919050565b600080fd5b6200027d8162000239565b81146200028957600080fd5b50565b611e0b806200029c6000396000f3fe6080604052600436106100a05760003560e01c806387773e301161006457806387773e30146101965780638da5cb5b146101d357806397c4fac7146101fe578063a75ac60814610229578063c618a1e414610254578063cf52a7b21461027f576100a7565b80631aa3a008146100ac5780632fe4855f146100b657806342562ad7146100f35780634357855e1461013057806383c5b0aa14610159576100a7565b366100a757005b600080fd5b6100b46102a8565b005b3480156100c257600080fd5b506100dd60048036038101906100d891906112b9565b610460565b6040516100ea9190611631565b60405180910390f35b3480156100ff57600080fd5b5061011a600480360381019061011591906112b9565b610480565b6040516101279190611631565b60405180910390f35b34801561013c57600080fd5b5061015760048036038101906101529190611340565b6104a0565b005b34801561016557600080fd5b50610180600480360381019061017b91906112b9565b61064a565b60405161018d9190611631565b60405180910390f35b3480156101a257600080fd5b506101bd60048036038101906101b89190611313565b61066a565b6040516101ca9190611553565b60405180910390f35b3480156101df57600080fd5b506101e861069d565b6040516101f59190611553565b60405180910390f35b34801561020a57600080fd5b506102136106c3565b6040516102209190611747565b60405180910390f35b34801561023557600080fd5b5061023e6106c9565b60405161024b919061164c565b60405180910390f35b34801561026057600080fd5b506102696108dd565b6040516102769190611747565b60405180910390f35b34801561028b57600080fd5b506102a660048036038101906102a191906112b9565b6108e3565b005b600c60003373ffffffffffffffffffffffffffffffffffffffff1673ffffffffffffffffffffffffffffffffffffffff16815260200190815260200160002060009054906101000a900460ff16610334576040517f08c379a000000000000000000000000000000000000000000000000000000000815260040161032b90611707565b60405180910390fd5b600a54341015610379576040517f08c379a0000000000000000000000000000000000000000000000000000000008152600401610370906116c7565b60405180910390fd5b600d60003373ffffffffffffffffffffffffffffffffffffffff1673ffffffffffffffffffffffffffffffffffffffff16815260200190815260200160002060009054906101000a900460ff1615610406576040517f08c379a00000000000000000000000000000000000000000000000000000000081526004016103fd906116e7565b60405180910390fd5b6001600d60003373ffffffffffffffffffffffffffffffffffffffff1673ffffffffffffffffffffffffffffffffffffffff16815260200190815260200160002060006101000a81548160ff021916908315150217905550565b600c6020528060005260406000206000915054906101000a900460ff1681565b600e6020528060005260406000206000915054906101000a900460ff1681565b816005600082815260200190815260200160002060009054906101000a900473ffffffffffffffffffffffffffffffffffffffff1673ffffffffffffffffffffffffffffffffffffffff163373ffffffffffffffffffffffffffffffffffffffff1614610542576040517f08c379a000000000000000000000000000000000000000000000000000000000815260040161053990611727565b60405180910390fd5b6005600082815260200190815260200160002060006101000a81549073ffffffffffffffffffffffffffffffffffffffff0219169055807f7cc135e0cebb02c3480ae5d74d377283180a2601f8f644edf7987b009316c63a60405160405180910390a2816006819055506000600f600085815260200190815260200160002060009054906101000a900473ffffffffffffffffffffffffffffffffffffffff169050603c60065410610644578073ffffffffffffffffffffffffffffffffffffffff166108fc6003600a546106179190611956565b9081150290604051600060405180830381858888f19350505050158015610642573d6000803e3d6000fd5b505b50505050565b600d6020528060005260406000206000915054906101000a900460ff1681565b600f6020528060005260406000206000915054906101000a900473ffffffffffffffffffffffffffffffffffffffff1681565b600b60009054906101000a900473ffffffffffffffffffffffffffffffffffffffff1681565b600a5481565b6000600d60003373ffffffffffffffffffffffffffffffffffffffff1673ffffffffffffffffffffffffffffffffffffffff16815260200190815260200160002060009054906101000a900460ff16610757576040517f08c379a000000000000000000000000000000000000000000000000000000000815260040161074e90611667565b60405180910390fd5b600061076d60085430634357855e60e01b6109ce565b90506107d16040518060400160405280600381526020017f6765740000000000000000000000000000000000000000000000000000000000815250604051806060016040528060308152602001611da660309139836109ff9092919063ffffffff16565b6108506040518060400160405280600481526020017f70617468000000000000000000000000000000000000000000000000000000008152506040518060400160405280600781526020017f302c76616c756500000000000000000000000000000000000000000000000000815250836109ff9092919063ffffffff16565b6000610881600760009054906101000a900473ffffffffffffffffffffffffffffffffffffffff1683600954610a32565b905033600f600083815260200190815260200160002060006101000a81548173ffffffffffffffffffffffffffffffffffffffff021916908373ffffffffffffffffffffffffffffffffffffffff160217905550809250505090565b60065481565b600b60009054906101000a900473ffffffffffffffffffffffffffffffffffffffff1673ffffffffffffffffffffffffffffffffffffffff163373ffffffffffffffffffffffffffffffffffffffff1614610973576040517f08c379a000000000000000000000000000000000000000000000000000000000815260040161096a906116a7565b60405180910390fd5b6001600c60008373ffffffffffffffffffffffffffffffffffffffff1673ffffffffffffffffffffffffffffffffffffffff16815260200190815260200160002060006101000a81548160ff02191690831515021790555050565b6109d66111de565b6109de6111de565b6109f585858584610afe909392919063ffffffff16565b9150509392505050565b610a16828460800151610bae90919063ffffffff16565b610a2d818460800151610bae90919063ffffffff16565b505050565b6000806004549050600181610a47919061178f565b6004819055506000634042994660e01b60008087600001513089604001518760018c6080015160000151604051602401610a8898979695949392919061156e565b604051602081830303815290604052907bffffffffffffffffffffffffffffffffffffffffffffffffffffffff19166020820180517bffffffffffffffffffffffffffffffffffffffffffffffffffffffff83818316178352505050509050610af386838684610bd3565b925050509392505050565b610b066111de565b610b168560800151610100610d77565b508385600001818152505082856020019073ffffffffffffffffffffffffffffffffffffffff16908173ffffffffffffffffffffffffffffffffffffffff16815250508185604001907bffffffffffffffffffffffffffffffffffffffffffffffffffffffff191690817bffffffffffffffffffffffffffffffffffffffffffffffffffffffff191681525050849050949350505050565b610bbb8260038351610de1565b610bce8183610f6690919063ffffffff16565b505050565b60003084604051602001610be8929190611527565b604051602081830303815290604052805190602001209050846005600083815260200190815260200160002060006101000a81548173ffffffffffffffffffffffffffffffffffffffff021916908373ffffffffffffffffffffffffffffffffffffffff160217905550807fb5e6e01e79f91267dc17b4e6314d5d4d03593d2ceee0fbb452b750bd70ea5af960405160405180910390a2600260009054906101000a900473ffffffffffffffffffffffffffffffffffffffff1673ffffffffffffffffffffffffffffffffffffffff16634000aea08685856040518463ffffffff1660e01b8152600401610cde939291906115f3565b602060405180830381600087803b158015610cf857600080fd5b505af1158015610d0c573d6000803e3d6000fd5b505050506040513d601f19601f82011682018060405250810190610d3091906112e6565b610d6f576040517f08c379a0000000000000000000000000000000000000000000000000000000008152600401610d6690611687565b60405180910390fd5b949350505050565b610d7f61124b565b6000602083610d8e9190611af9565b14610dba57602082610da09190611af9565b6020610dac91906119b0565b82610db7919061178f565b91505b81836020018181525050604051808452600081528281016020016040525082905092915050565b60178167ffffffffffffffff1611610e1857610e128160058460ff16901b60ff161784610f8890919063ffffffff16565b50610f61565b60ff8167ffffffffffffffff1611610e6e57610e47601860058460ff16901b1784610f8890919063ffffffff16565b50610e688167ffffffffffffffff16600185610fa89092919063ffffffff16565b50610f60565b61ffff8167ffffffffffffffff1611610ec557610e9e601960058460ff16901b1784610f8890919063ffffffff16565b50610ebf8167ffffffffffffffff16600285610fa89092919063ffffffff16565b50610f5f565b63ffffffff8167ffffffffffffffff1611610f1e57610ef7601a60058460ff16901b1784610f8890919063ffffffff16565b50610f188167ffffffffffffffff16600485610fa89092919063ffffffff16565b50610f5e565b610f3b601b60058460ff16901b1784610f8890919063ffffffff16565b50610f5c8167ffffffffffffffff16600885610fa89092919063ffffffff16565b505b5b5b5b505050565b610f6e61124b565b610f8083846000015151848551610fca565b905092915050565b610f9061124b565b610fa083846000015151846110b9565b905092915050565b610fb061124b565b610fc1848560000151518585611110565b90509392505050565b610fd261124b565b8251821115610fe057600080fd5b84602001518285610ff1919061178f565b11156110265761102585600261101688602001518887611011919061178f565b61119e565b6110209190611956565b6111ba565b5b6000808651805187602083010193508088870111156110455787860182525b60208701925050505b6020841061108c5780518252602082611067919061178f565b9150602081611076919061178f565b905060208461108591906119b0565b935061104e565b60006001856020036101000a03905080198251168184511681811785525050508692505050949350505050565b6110c161124b565b836020015183106110e7576110e684600286602001516110e19190611956565b6111ba565b5b8351805160208583010184815381861415611103576001820183525b5050508390509392505050565b61111861124b565b84602001518483611129919061178f565b1115611151576111508560028685611141919061178f565b61114b9190611956565b6111ba565b5b60006001836101006111639190611838565b61116d91906119b0565b905085518386820101858319825116178152815185880111156111905784870182525b505085915050949350505050565b6000818311156111b0578290506111b4565b8190505b92915050565b6000826000015190506111cd8383610d77565b506111d88382610f66565b50505050565b6040518060a0016040528060008019168152602001600073ffffffffffffffffffffffffffffffffffffffff16815260200160007bffffffffffffffffffffffffffffffffffffffffffffffffffffffff191681526020016000815260200161124561124b565b81525090565b604051806040016040528060608152602001600081525090565b60008135905061127481611d49565b92915050565b60008151905061128981611d60565b92915050565b60008135905061129e81611d77565b92915050565b6000813590506112b381611d8e565b92915050565b6000602082840312156112cf576112ce611b88565b5b60006112dd84828501611265565b91505092915050565b6000602082840312156112fc576112fb611b88565b5b600061130a8482850161127a565b91505092915050565b60006020828403121561132957611328611b88565b5b60006113378482850161128f565b91505092915050565b6000806040838503121561135757611356611b88565b5b60006113658582860161128f565b9250506020611376858286016112a4565b9150509250929050565b611389816119e4565b82525050565b611398816119f6565b82525050565b6113a781611a02565b82525050565b6113b681611a0c565b82525050565b60006113c782611762565b6113d1818561176d565b93506113e1818560208601611a98565b6113ea81611b8d565b840191505092915050565b61140661140182611a62565b611acb565b82525050565b6000611419601a8361177e565b915061142482611bb8565b602082019050919050565b600061143c60238361177e565b915061144782611be1565b604082019050919050565b600061145f60118361177e565b915061146a82611c30565b602082019050919050565b600061148260258361177e565b915061148d82611c59565b604082019050919050565b60006114a5601f8361177e565b91506114b082611ca8565b602082019050919050565b60006114c8601c8361177e565b91506114d382611cd1565b602082019050919050565b60006114eb60288361177e565b91506114f682611cfa565b604082019050919050565b61150a81611a58565b82525050565b61152161151c82611a58565b611aef565b82525050565b600061153382856113f5565b6014820191506115438284611510565b6020820191508190509392505050565b60006020820190506115686000830184611380565b92915050565b600061010082019050611584600083018b611380565b611591602083018a611501565b61159e604083018961139e565b6115ab6060830188611380565b6115b860808301876113ad565b6115c560a0830186611501565b6115d260c0830185611501565b81810360e08301526115e481846113bc565b90509998505050505050505050565b60006060820190506116086000830186611380565b6116156020830185611501565b818103604083015261162781846113bc565b9050949350505050565b6000602082019050611646600083018461138f565b92915050565b6000602082019050611661600083018461139e565b92915050565b600060208201905081810360008301526116808161140c565b9050919050565b600060208201905081810360008301526116a08161142f565b9050919050565b600060208201905081810360008301526116c081611452565b9050919050565b600060208201905081810360008301526116e081611475565b9050919050565b6000602082019050818103600083015261170081611498565b9050919050565b60006020820190508181036000830152611720816114bb565b9050919050565b60006020820190508181036000830152611740816114de565b9050919050565b600060208201905061175c6000830184611501565b92915050565b600081519050919050565b600082825260208201905092915050565b600082825260208201905092915050565b600061179a82611a58565b91506117a583611a58565b9250827fffffffffffffffffffffffffffffffffffffffffffffffffffffffffffffffff038211156117da576117d9611b2a565b5b828201905092915050565b6000808291508390505b600185111561182f5780860481111561180b5761180a611b2a565b5b600185161561181a5780820291505b808102905061182885611bab565b94506117ef565b94509492505050565b600061184382611a58565b915061184e83611a58565b925061187b7fffffffffffffffffffffffffffffffffffffffffffffffffffffffffffffffff8484611883565b905092915050565b600082611893576001905061194f565b816118a1576000905061194f565b81600181146118b757600281146118c1576118f0565b600191505061194f565b60ff8411156118d3576118d2611b2a565b5b8360020a9150848211156118ea576118e9611b2a565b5b5061194f565b5060208310610133831016604e8410600b84101617156119255782820a9050838111156119205761191f611b2a565b5b61194f565b61193284848460016117e5565b9250905081840481111561194957611948611b2a565b5b81810290505b9392505050565b600061196182611a58565b915061196c83611a58565b9250817fffffffffffffffffffffffffffffffffffffffffffffffffffffffffffffffff04831182151516156119a5576119a4611b2a565b5b828202905092915050565b60006119bb82611a58565b91506119c683611a58565b9250828210156119d9576119d8611b2a565b5b828203905092915050565b60006119ef82611a38565b9050919050565b60008115159050919050565b6000819050919050565b60007fffffffff0000000000000000000000000000000000000000000000000000000082169050919050565b600073ffffffffffffffffffffffffffffffffffffffff82169050919050565b6000819050919050565b6000611a6d82611a74565b9050919050565b6000611a7f82611a86565b9050919050565b6000611a9182611a38565b9050919050565b60005b83811015611ab6578082015181840152602081019050611a9b565b83811115611ac5576000848401525b50505050565b6000611ad682611add565b9050919050565b6000611ae882611b9e565b9050919050565b6000819050919050565b6000611b0482611a58565b9150611b0f83611a58565b925082611b1f57611b1e611b59565b5b828206905092915050565b7f4e487b7100000000000000000000000000000000000000000000000000000000600052601160045260246000fd5b7f4e487b7100000000000000000000000000000000000000000000000000000000600052601260045260246000fd5b600080fd5b6000601f19601f8301169050919050565b60008160601b9050919050565b60008160011c9050919050565b7f4164647265737320776173206e6f742072656769737465726564000000000000600082015250565b7f756e61626c6520746f207472616e73666572416e6443616c6c20746f206f726160008201527f636c650000000000000000000000000000000000000000000000000000000000602082015250565b7f4572726f723a204f6e6c79206f776e6572000000000000000000000000000000600082015250565b7f416d6d6f756e74206f6620726567697374657220666565206973206e6f74206560008201527f6e6f756768000000000000000000000000000000000000000000000000000000602082015250565b7f41646472657373206861766520616c7265616479207265676973746572656400600082015250565b7f4164647265737320776173206e6f74207768696c74656c697374656400000000600082015250565b7f536f75726365206d75737420626520746865206f7261636c65206f662074686560008201527f2072657175657374000000000000000000000000000000000000000000000000602082015250565b611d52816119e4565b8114611d5d57600080fd5b50565b611d69816119f6565b8114611d7457600080fd5b50565b611d8081611a02565b8114611d8b57600080fd5b50565b611d9781611a58565b8114611da257600080fd5b5056fe68747470733a2f2f3632363530656164613535643530353562653465373934322e6d6f636b6170692e696f2f7261696ea26469706673582212201f655e11bd1f3ed618108ae47cf21b75cbaf5ed2c50159e825e5cddca0c9d04564736f6c63430008070033",
  "linkReferences": {},
  "deployedLinkReferences": {}
}